{
  "schema": 1,
  "network": "main",
  "pow_limit_bits": "0x1f00ffff",
  "genesis": {
    "model": "fixed_bits",
    "bits": "0x1a7f1ab5",
    "expected_bits": "0x1a7f1ab5",
    "reference_network": "testnet4",
    "timestamp_message": "Google: Securing ECC Cryptocurrencies against Quantum Vulnerabilities 958157:3abaf85",
    "timestamp_source_url": "https://arxiv.org/abs/2603.28846",
    "max_coinbase_script_sig_bytes": "100",
    "max_second_push_extranonce_bytes": "8",
    "source": "Public mainnet genesis mining record using the approved testnet4-equivalent launch nBits and the cited arXiv record.",
    "mined": {
      "found_at_unix": "1784131108",
      "nversion": "1",
      "ntime": "1784131083",
      "nbits": "0x1a7f1ab5",
      "nnonce": "1084616938",
      "hash": "0000000000004d60aa5d46013991d0a0e2995d89ee98e53068ae196d763e79f2",
      "merkle_root": "584b62d357e3213ae27815d53b41efc869cc91fcf73d6a81dcab5e08508cb6f1",
      "target": "0000000000007f1ab50000000000000000000000000000000000000000000000",
      "coinbase_script_sig_hex": "04ffff001d08044c0000000000004c54476f6f676c653a205365637572696e67204543432043727970746f63757272656e6369657320616761696e7374205175616e74756d2056756c6e65726162696c6974696573203935383135373a33616261663835",
      "coinbase_tx_hex": "01000000010000000000000000000000000000000000000000000000000000000000000000ffffffff6404ffff001d08044c0000000000004c54476f6f676c653a205365637572696e67204543432043727970746f63757272656e6369657320616761696e7374205175616e74756d2056756c6e65726162696c6974696573203935383135373a33616261663835ffffffff010092b2e3040000002321000000000000000000000000000000000000000000000000000000000000000000ac00000000",
      "genesis_output_script_hex": "21000000000000000000000000000000000000000000000000000000000000000000ac",
      "extranonce_location": "script_sig_second_push",
      "extranonce1": "",
      "extranonce2": "044c000000000000",
      "rolling_ntime": true,
      "version_rolling_mask": "0x1fffe000"
    }
  },
  "permissionless": {
    "model": "fdv_hashprice",
    "fdv_usd": "100000000",
    "total_supply_qbt": "210000000",
    "subsidy_qbt": "210",
    "expected_fees_qbt": "0",
    "hashprice_usd_per_ph_day": "30.39",
    "hashprice_basis": "7-day average",
    "observed_at": "2026-07-13T21:00:00Z",
    "source_url": "https://hashrateindex.com/blog/hashrate-index-roundup-july-13-2026/",
    "policy_source_url": "https://github.com/Qbit-Org/qbit-white-paper/blob/1ab5f360e9e79060b3f74bf571affe52ffde2c84/paper/qbit-whitepaper.md#63-initial-difficulty",
    "derived_difficulty_approx": "66194694345.81881",
    "expected_bits": "0x18109c29",
    "source": "Hashrate Index Roundup dated July 13, 2026; 7-day average USD hashprice observed at 21:00 UTC."
  },
  "auxpow": {
    "model": "bitcoin_hashrate_share",
    "bitcoin_global_hashrate_eh_s": "879",
    "bitcoin_hashrate_basis": "7-day simple moving average",
    "hashrate_share": "0.01",
    "target_spacing_sec": "300",
    "observed_at": "2026-07-13T21:00:00Z",
    "source_url": "https://hashrateindex.com/blog/hashrate-index-roundup-july-13-2026/",
    "policy_source_url": "https://github.com/Qbit-Org/qbit-white-paper/blob/1ab5f360e9e79060b3f74bf571affe52ffde2c84/paper/qbit-whitepaper.md#63-initial-difficulty",
    "derived_hashrate_eh_s": "8.79",
    "derived_difficulty_approx": "613974407315.25421",
    "expected_bits": "0x1801ca70",
    "source": "Hashrate Index Roundup dated July 13, 2026; Bitcoin 7-day hashrate SMA observed at 21:00 UTC, combined with the approved 1% launch participation assumption."
  }
}
